:020000040800F2
:1000000030240020AD010008111800080D18000868
:100010000F18000805030008751A0008000000000A
:10002000000000000000000000000000151800089B
:100030000703000800000000131800081718000844
:10004000C7010008C7010008C7010008C701000870
:10005000C7010008C7010008C7010008C701000860
:10006000C7010008C7010008C7010008C701000850
:10007000C7010008C7010008C7010008C701000840
:10008000C7010008C7010008950200080000000031
:10009000000000000000000000000000C701000890
:1000A000C7010008C7010008C7010008C701000810
:1000B000C5180008C7010008C7010008C7010008EB
:1000C000C7010008C7010008C7010008C7010008F0
:1000D000C7010008C7010008C701000800000000B0
:1000E000C7010008C7010008C701000800000000A0
:1000F000000000000000000000000000C701000830
:1001000000000000C7010008C7010008C70100087F
:1001100000000000000000000000000000000000DF
:10012000C7010008C7010008C7010008C70100088F
:10013000C7010008000000000000000000000000EF
:10014000000000000000000000000000C7010008DF
:10015000C7010008C7010008C7010008C70100085F
:10016000C7010008C70100080000000000000000EF
:10017000000000000000000000000000000000007F
:1001800000000000C701000800000000000000009F
:10019000C7010008DFF810D000F06AF800480047F7
:1001A000951A0008AFF300803024002006488047ED
:1001B00006480047FEE7FEE7FEE7FEE7FEE7FEE74C
:1001C000FEE7FEE7FEE7FEE7B51800089501000828
:1001D0002DE9F05F0546002092469B46884606467C
:1001E000814640241BE0284641464746224600F00F
:1001F0002FF853465A46C01A914110D3114618465B
:10020000224600F016F82D1A67EB01084F462246E9
:100210000120002100F00DF817EB00094E41201ECF
:10022000A4F10104DFDC484631462A464346BDE8D6
:10023000F09F202A04DB203A00FA02F100207047E8
:100240009140C2F1200320FA03F319439040704714
:10025000202A04DB203A21FA02F00021704721FA1B
:1002600002F3D040C2F12002914008431946704782
:10027000064C074D06E0E06840F0010394E80700F3
:1002800098471034AC42F6D3FFF788FF441C0008AF
:10029000641C000810B5154800F015F92021144819
:1002A00000F02AFC114800F00BF912494A6810448A
:1002B00048600A68531C104A0B601268934218BFCA
:1002C00010BD002390FBF2F000EE100A0B600B4A09
:1002D0008868B8EEC00A02EB800282ED000A084A84
:1002E0001268904208BF8B6010BD00001C00002007
:1002F0000000024000000020241C0008F000002044
:10030000281C0008FEE770477047000030B482B038
:100310004FF0000CCDF804C090F83C20012A01BF3A
:10032000022002B030BC7047012280F83C200A68ED
:1003300007230468092A14D9E5680A3A02EB420245
:1003400003FA02F225EA0202E2600B788A680A3BAD
:1003500003EB430302FA03F30268D4682343D36038
:1003600011E0256902EB420203FA02F225EA0202D9
:1003700022610B788A6803EB430302FA03F30268F5
:100380001469234313614A681F23072A16D204689D
:10039000656B521E02EB820203FA02F225EA0202A8
:1003A00062630B790A885B1E92B203EB830302FA45
:1003B00003F30268546B234353632DE004680D2A52
:1003C00015D2256BD21F02EB820203FA02F225EA54
:1003D000020222630B790A88DB1F92B203EB8303CC
:1003E00002FA03F30268146B2343136314E0E56A13
:1003F0000D3A02EB820203FA02F225EA0202E262FD
:100400000B790A880D3B92B203EB830302FA03F3E4
:100410000268D46A2343D362254B0468234A9C4272
:1004200004BF0C68122C03D1546844F48004546057
:1004300004689C422FD10B68102B18BF112B2AD1B6
:10044000536843F4000353600968102923D1194904
:10045000194A0968B1FBF2F101EB810149000191F0
:10046000009118D0B1F1004F1BD20029D8BF002154
:1004700005DD11F0010102D0019A521E0192009A8D
:10048000491C521C914206DA019B891C5B1E5B1EB3
:1004900001939142F8DB80F83CC002B0002030BCF0
:1004A00070470199491E0191FCD1F4E700230140F6
:1004B000002001401800002040420F0070477047A4
:1004C0000068C06C704770B50446006801684268F7
:1004D000C1F34001C2F34012002918BF002A2DD0F9
:1004E000216C11F0100F03D1216C41F400712164D3
:1004F000816811F0405F04BF217E002917D1C16AD5
:1005000011F4700F1CBF816811F4806F0FD1416826
:1005100021F020014160206C20F480702064206C68
:1005200010F4805F03D1206C40F00100206420466D
:10053000FFF7C4FF21686FF01200086020680168AF
:100540004268C1F38001C2F3C012002918BF002A1B
:1005500034D0216C11F0100F03D1216C41F4005103
:100560002164816811F4401F21D1816B11F4401F77
:100570001CBF816811F4806F19D1416811F4806F3C
:1005800001BF816811F0405F217E00290FD14168D1
:1005900021F080014160206C20F480502064206CA8
:1005A00010F4807F03D1206C40F0010020642046CD
:1005B000FFF7AAFE21686FF00C0008602068016850
:1005C000426811F0010FC2F380121EBF002A0068BA
:1005D00010F0010F0AD0206C40F4803020642046D7
:1005E00000F0D6F821686FF001000860206801680B
:1005F0004268C1F34011C2F38062002914BF002A8F
:1006000070BD616C41F0020161646FF0200505600E
:100610002046FFF754FF2068056070BD70B50400E8
:100620004FF0000504BF012070BD206C002628B9E2
:10063000204600F0AFF8666484F83C60206C10F04F
:10064000100F18BF012503D084F83C60284670BD08
:10065000206C20F4885040F0020020644948416832
:1006600021F4403141604168626811434160206873
:10067000416821F48071416020684168226941EA43
:10068000022141602068416821F04071416020688A
:100690004168A268114341602068816821F40061CB
:1006A000816020688168E26811438160A06A6FF010
:1006B0007061C8422068816821F0706181602068A3
:1006C000816808BF21F040510BD0A26A11438160BC
:1006D0002068816821F04051816020688168E26A69
:1006E000114381602068816821F0020181602068E7
:1006F0008168227E41EA4201816094F8200000284E
:100700002068416808BF21F400610ED041F4006107
:1007100041602068416821F460414160206841687F
:10072000194B626A03EB4232114341602068C16A8F
:1007300021F47001C1622068C16AA28B134B03EBE4
:1007400002521143C1622068816821F40071816006
:100750002068816894F8302041EA42218160206855
:10076000816821F48061816020688168626941EA62
:10077000822181606664206C20F0020040F001005C
:10078000206461E70023014000E0FFFF0000F0FF6C
:100790007047000000B587B00021009101910291DF
:1007A000039104910068A0F18041B1F590311CBF24
:1007B00007B000BD1148016841F480710160006814
:1007C00000F4807005900E48016841F0010101605D
:1007D0000068694600F001000590012000900320A8
:1007E0000190084800F0A2F800221146122000F003
:1007F00005FA122000F0F2F907B000BD44380240BB
:10080000303802400000024082B04FF0000CCDF8BA
:1008100004C090F83C10012902BF022002B07047CA
:10082000012180F83C1001688A6812F0010F26D17E
:100830008A6842F001028A6039493A4A0968B1FB84
:10084000F2F111EB41010191009118D0B1F1004F8B
:1008500060D20029D8BF002105DD11F0010102D0CE
:10086000019A521E0192009A491C521C914206DACA
:10087000019B891C5B1E5B1E01939142F8DB0168A2
:100880008A6812F0010F3AD0026C22F0010222F4C1
:10089000C06242F4807202644A6812F4806F05D02C
:1008A000026C22F4005242F480520264026C12F490
:1008B000805F08BFC0F844C003D0426C22F006023B
:1008C000426480F83CC0184A6FF022030B60516804
:1008D000006811F01F0F09D0A0F18041B1F59031EF
:1008E00004BF816811F0405F04D010E0816811F00E
:1008F000405F0CD1816841F08041816007E0016C6C
:1009000041F010010164416C41F00101416400209B
:1009100002B070470199491E0191FCD1AFE7000078
:100920001800002040420F00002301402DE9F84F3D
:100930006E4D6D4C00224FF001094FF0030C4FF04B
:100940000F0A05F1040E00BF0B6809FA02F63340E6
:10095000B3427DD10F7907F00307012F18BF022F93
:1009600019D1D0F808804FEA42070CFA07FB28EAB1
:100970000B08D1F80CB00BFA07F747EA08078760B5
:10098000476827EA06060F79C7F3001707FA02F748
:1009900047EA060646604E683CEA06060BD0C76882
:1009A00056000CFA06F827EA0807D1F8088008FA7A
:1009B00006F63E43C6600E7906F00306022E11D1FC
:1009C000D60800EB8607D7F820805607F60E0AFAFD
:1009D00006FB28EA0B08D1F810B00BFA06F646EA37
:1009E00008063E62076856000CFA06F827EA080770
:1009F00091F8048008F0030808FA06F63E43066002
:100A00004E6816F0805F69D0266846F480462660FE
:100A1000266806F48046009622F0030606F1804719
:100A200007F59837D7F808889607360F0AFA06FBB5
:100A300028EA0B08A0F1804BBBF5003B22D0A0F1C7
:100A4000804BBBF5013B08BF4FF0010B1AD000E013
:100A500044E0A0F1804BBBF5023B08BF4FF0020B16
:100A600010D0A0F1804BBBF5033B08BF4FF0030B48
:100A700008D0A0F1804BBBF5043B0CBF4FF0040B3A
:100A80004FF0070B0BFA06F646EA0806C7F80868A7
:100A90002E684F689E4317F4803F18BF1E432E6098
:100AA000DEF800604F689E4317F4003F18BF1E43F6
:100AB000CEF800600E4F3E68D1F804809E4318F4D3
:100AC000801F18BF1E433E600A4F3E68D1F8048065
:100AD0009E4318F4001F18BF1E433E60521C102A8C
:100AE000FFF432AFBDE8F88F44380240003C0140CB
:100AF000083C01400C3C0140426921EA02031140DC
:100B000043EA014181617047002A08BF09048161FD
:100B10007047000001488068704700000C0000200A
:100B20000248816802781144816070470C000020FF
:100B30000B4810B5016841F400710160016841F48F
:100B400080610160016841F480710160032000F060
:100B500087F8002000F006F800F024F8002010BD0F
:100B6000003C024070B50D4D04464FF47A71287870
:100B7000B1FBF0F00A490968B1FBF0F000F08CFB22
:100B800048B9102C07D200222146501E00F036F83A
:100B900000206C6070BD012070BD00000C000020C2
:100BA000180000200B4882B0016841F480410160C8
:100BB000006800F4804000900748016841F08051CF
:100BC0000160006800F080500090072002B000F043
:100BD00047B8000044380240403802400028B8BFFF
:100BE000704700F01F01012202FA01F14009800064
:100BF00000F1E020C0F8001170470000174B10B45E
:100C00001B68C3F30223C3F1070CBCF1040F88BFB8
:100C10004FF0040C1C1D072C34BF0023DB1E0124E5
:100C200004FA0CFCACF1010C0CEA0101994004FA45
:100C300003F35B1E1A40114300284FEA0111A1BFC4
:100C400000F1E02080F8001410BC704700F00F00A5
:100C500000F1E02080F8141D10BC70470CED00E09E
:100C6000074900F007000A684FF6FF031A4042EAFE
:100C7000002040F0FD7040F0806008607047000088
:100C80000CED00E0002804BF012070472DE9F0477B
:100C90004D4E04460F46306801F0FF0800F0070093
:100CA000B84206D286F80080306800F00700B842EB
:100CB00061D12068454D10F0020F14D010F0040FE0
:100CC00003D0286840F4E0502860207810F0080F26
:100CD00003D0286840F4604028602868A16820F0AC
:100CE000F00008432860207810F0010F37D06068CA
:100CF0003749012823D0022818BF0328096823D0C8
:100D000011F0020F37D0296821F0030141EA0000F9
:100D10002860FFF7FFFE81462868616800F00C003C
:100D2000B0EB810F18BF41F2883A18D0FFF7F2FEFE
:100D3000A0EB090050450BD90320BDE8F0870968F6
:100D400011F4003FDFD116E011F0007FDBD112E09B
:100D50002868616800F00C00B0EB810FE6D13068C4
:100D600000F00700B84209D986F80080306800F02A
:100D70000700B84202D00120BDE8F087207810F0CB
:100D8000040F05D02868E16820F4E050084328608B
:100D9000207810F0080F06D02868216920F4604000
:100DA00040EAC100286000F03BF82968094AC1F315
:100DB0000311515CC8400849086008480068FFF703
:100DC000D1FE0020BDE8F087003C02400838024018
:100DD000003802402C1C00081800002010000020E1
:100DE0000448054900680968044AC1F38221515C3E
:100DF000C840704718000020083802403C1C00081A
:100E00000448054900680968044AC1F34231515C4D
:100E1000C840704718000020083802403C1C0008F9
:100E20001848006810F00C02174808BF70471749AF
:100E3000042A04BF08467047082A18BF704710B537
:100E4000134C2268236802F03F0213F4800F08D08D
:100E500020680023C0F38810A0FB0101FFF7B8F958
:100E600007E021680023C1F38811A1FB0001FFF70F
:100E7000AFF92168C1F30141491C4900B0FBF1F011
:100E800010BD0000083802400024F40000127A006F
:100E900004380240002804BF012070472DE9F84FB4
:100EA00004460078DFF8CC8310F0010FA8F10405A8
:100EB00058D008F10400016801F00C01042909D0A0
:100EC000006800F00C0008280DD1D8F8000010F4DC
:100ED000800F08D0286810F4003F43D060680028D5
:100EE00000F0C1813EE06068B0F5803F19D0B0F5F8
:100EF000A02F28680CBF40F4802020F480302860A8
:100F000028680CBF40F4803020F48020286060689E
:100F1000B8B1FFF7FFFD0646286810F4003F05D082
:100F200020E0286840F480302860F0E7FFF7F2FD09
:100F3000801B642800F22F81286810F4003FF5D050
:100F400010E0FFF7E7FD0646286810F4003F09D0DF
:100F5000FFF7E0FD801B642800F21D81286810F473
:100F6000003FF5D12078C44F10F0020F47D0C3499D
:100F7000086810F00C0F16D0086800F00C00082864
:100F800004BFD8F8000010F4800F0CD0E06820B344
:100F90004FF001003860FFF7BDFD0646286810F0ED
:100FA000020F09D011E0286810F0020F1CBFE068A2
:100FB00001280AD000F057B9FFF7ACFD801B0228CA
:100FC0007ED8286810F0020FF6D02868216920F03A
:100FD000F80040EAC100286011E000203860FFF707
:100FE00099FD0646286810F0020F08D0FFF792FD21
:100FF000801B022864D8286810F0020FF6D12078F0
:1010000010F0080F2AD09E489E4E616999B10121C7
:101010000160FFF77FFD8146306810F0020F1DD19F
:10102000FFF778FDA0EB0900022849D8306810F0DE
:10103000020FF5D012E000210160FFF76BFD814641
:10104000306810F0020F09D0FFF764FDA0EB090033
:10105000022835D8306810F0020FF5D1207810F052
:10106000040F7FD088484FF0000B006810F0805FBD
:101070000AD18548016841F08051016000684FF055
:10108000010B00F080500090DFF80092D9F80000CA
:1010900010F4807F1AD1D9F8000040F48070C9F8AC
:1010A0000000FFF737FD0646D9F8000010F4807FF6
:1010B0000CD100BFFFF72EFD801B02286BD800E08B
:1010C00069E0D9F8000010F4807FF3D0A068704E7A
:1010D00001281BD0052830680CBF40F0040020F028
:1010E0000100306030680CBF40F0010020F00400C7
:1010F000C6F80000A06841F2883AB8B1FFF70AFDCF
:101100008146306810F0020F05D021E0306840F0D1
:1011100001003060EEE7FFF7FDFCA0EB0900504551
:1011200039D8306810F0020FF5D011E0FFF7F2FC6B
:101130008146306810F0020F0AD000BFFFF7EAFCCA
:10114000A0EB0900504526D8306810F0020FF5D109
:10115000BBF1000F06D04C48016821F0805100E03F
:1011600000E00160A069E8B34449096801F00C019E
:10117000082950D002284FF0000038660ED0FFF743
:10118000C9FC0446286810F0007F6FD0FFF7C2FC4E
:10119000001B02283AD90320BDE8F88FFFF7BAFCFC
:1011A0000646286810F0007F09D000BFFFF7B2FCA8
:1011B000801B0228EFD8286810F0007FF6D1D4E910
:1011C00007010843A16A334A490802EB0141626AF8
:1011D00041EA8211084394F82C1040EA0160C8F8F3
:1011E000000000E042E001203866FFF793FC04466F
:1011F000286810F0007F39D1FFF78CFC001B022813
:10120000C9D8286810F0007FF6D02FE0286810F0C9
:10121000007FBBD12AE0012808BFBDE8F88FD8F8CD
:101220000000E26900F4800191421CD1226A00F0C2
:101230003F01914217D147F6C071626A0140B1EB9C
:10124000821F10D1A26A4FF0FF3300F4403103EB4C
:101250005202B1EB024F06D194F82C1000F07060EE
:10126000B0EB016F02D00120BDE8F88F0020BDE88F
:10127000F88F00000438024000004742083802405E
:10128000800E4742743802404038024000700040EF
:10129000703802400000FFFF411EB1F1807F24BF83
:1012A000012070474FF0E0204161054AF02182F8AB
:1012B000141D002181610721016100207047000099
:1012C0000FE000E07047704790F83C20012A04BF0F
:1012D0000220704730B4012380F83C30022280F8AD
:1012E0003D2002685468D2F808C00D6824F07004EC
:1012F0002C4354600268A2F18044B4F5803418BFD6
:10130000B2F1804F13D0A2F18044B4F580641CBFC9
:10131000A2F18044B4F5006409D0A2F18044B4F590
:1013200040641CBFA2F18044B4F5A03405D14968E3
:101330002CF0800C41EA0C01916080F83D300021D6
:1013400080F83C1030BC08467047002804BF0120DC
:10135000704710B5044690F83D0028B9002084F885
:101360003C00204600F01EF8022084F83D00211DBC
:10137000206800F0B5FA012084F8460084F83E00A9
:1013800084F83F0084F8400084F8410084F842006B
:1013900084F8430084F8440084F8450084F83D0054
:1013A000002010BD08B50068B0F1804F18BF08BD1F
:1013B0000948016841F0010101600068002200F065
:1013C0000100009011461C20FFF718FCBDE8084002
:1013D0001C20FFF703BC00004038024090F83D108D
:1013E00001291CBF01207047022180F83D100168CF
:1013F000CA6842F00102CA600068A0F18041B1F5FC
:10140000803118BFB0F1804F13D0A0F18041B1F509
:1014100080611CBFA0F18041B1F5006109D0A0F14D
:101420008041B1F540611CBFA0F18041B1F5A03110
:1014300004D1816801F00701062903D0016841F059
:10144000010101600020704790F83C20012A0DBF87
:101450000220012380F83C30704730B4022280F82B
:101460003D20D0F800C0DCF8082022F0770222F4FA
:101470007F42CCF808200A68502A3DD00CDC202A94
:1014800074D004DC002A18BF102A51D18CE0302A15
:101490006CD0402A6CD091E0602A4AD0702A06D0E5
:1014A000B2F5805F44D0B2F5005F12D086E0D1E99A
:1014B000014C0268C968956844EA012125F47F451A
:1014C00041EA0C012943916001688A6842F0770281
:1014D00010E00268D1F804C08C68C96895684CEACD
:1014E000012125F47F4521432943916001688A68E1
:1014F00042F480428A6061E00268D1F804C0C968A1
:10150000146A156A25F001051562956924F00A042C
:1015100025F0F00545EA011144EA0C0C9161C2F88E
:1015200020C001688A6822F0700242F057028A6087
:1015300044E00268D1F804C0C968146A24F01004B9
:1015400014629569146A25F4704545EA013124F066
:10155000A00444EA0C1C9161C2F820C001688A68AA
:1015600022F0700242F067028A6027E01CE0FFE789
:101570000268D1F804C0CC68116A156A25F001052B
:101580001562956921F00A0125F0F00545EA041479
:1015900041EA0C019461116201688A6822F07002CC
:1015A00042F047028A6009E00168D1F808C02CF0D7
:1015B000700C4CEA020242F007028A6080F83D306B
:1015C000002180F83C1030BC08467047704770B569
:1015D0000446006801694FF0000511F0020F1CBFBE
:1015E000C16811F0020F13D06FF0020101610120F8
:1015F00020772068806910F0030F204602D0FFF7A3
:10160000E5FF04E000F099F8204600F097F8257710
:101610002068016911F0040F1CBFC16811F0040FAC
:1016200013D06FF0040101610220207720688069E7
:1016300010F4407F204602D0FFF7C8FF04E000F01E
:101640007CF8204600F07AF825772068016911F0CF
:10165000080F1CBFC16811F0080F13D06FF008010C
:101660000161042020772068C06910F0030F204634
:1016700002D0FFF7ABFF04E000F05FF8204600F077
:101680005DF825772068016911F0100F1CBFC16853
:1016900011F0100F13D06FF01001016108202077B6
:1016A0002068C06910F4407F204602D0FFF78EFF0B
:1016B00004E000F042F8204600F040F8257720686A
:1016C000016911F0010F1CBFC16811F0010F05D0B5
:1016D0006FF001010161204600F031F820680169D6
:1016E00011F0800F1CBFC16811F0800F05D06FF0A2
:1016F000800101612046FFF7E5FD2068016911F0D6
:10170000400F1CBFC16811F0400F05D06FF04001C1
:101710000161204600F014F82068016911F0200FE3
:101720001ABFC16811F0200F70BD6FF02001016178
:101730002046BDE87040FFF7C6BD70477047704750
:101740007047002804BF0120704770B5044690F828
:101750003D00002520B984F83C50204600F022F8D6
:10176000242084F83D002068C16821F40051C16044
:10177000204600F007F92068016921F490410161D9
:101780002068416921F02A0141612068C16841F463
:101790000051C1602564202084F83D0084F83E009B
:1017A000002070BD00B587B0002100910191029129
:1017B000039104910068A0F18041B1F588411CBFFC
:1017C00007B000BD0E48016841F4003101600068B7
:1017D00000F4003005900B48016841F00101016000
:1017E0000068694600F0010005900C20009002207E
:1017F0000190072004900448FFF798F807B000BD57
:10180000403802403038024000000240FEE7FEE768
:10181000FEE770477047FFF783B9000030B593B01B
:101820000024029421480194059407940C940D948B
:101830000E940F941094016841F08051016000688B
:1018400000F0805011901A48016821F4404141F4A1
:10185000004101600068022500F440401190012021
:1018600003901020049008904FF490700990009518
:1018700004200A90069507200B906846FFF70AFBA4
:1018800008B172B6FEE70F20CDE90C054FF4805089
:10189000CDE90E4002210CA81094FFF7F3F90028BF
:1018A00004BF13B030BD72B6FEE7000040380240FE
:1018B000007000400248016841F470010160704707
:1018C00088ED00E010B50448FFF781FEBDE8104048
:1018D0000248FEF799BF0000640000201C000020B1
:1018E00070B40268234BDFF890C0244C244D98421A
:1018F00018BFB0F1804F04D060451CBFA042A84281
:1019000004D14E6822F0700246EA0202984218BFE3
:10191000B0F1804F14D0604518BFA04210D0A8424B
:101920001CBFA0F1804CBCF5A03C09D0A0F1804CBC
:10193000BCF5A23C1CBFA0F1804CBCF5A43C05D179
:10194000D1F80CC022F440724CEA0202D1F814C063
:1019500022F0800242EA0C0202608A68C2620A68CF
:101960008262984204BF096901630121416170BC30
:1019700070470000000001400004004000080040E3
:10198000000C004070B5044600680169E26821F46B
:101990004051114301612169A068E269084361690E
:1019A000114301432068C26822F4037222F41442F6
:1019B0001143C16020684169A26921F4407111435B
:1019C00041612068A0F18041B1F588311CBFA0F1D0
:1019D0008041B1F58A3128D0FFF702FAE26900238D
:1019E00019213226B2F5004F214D626820D0A0FBAC
:1019F0000101930F9200FEF7EBFB0146A5FB0120CE
:101A000040096FF01802424301EB820106EB01111D
:101A1000A5FB0121490901F0F00202EB001001F0E1
:101A20000F0108442168886070BDFFF7E9F9D5E728
:101A3000A0FB010192185B41FEF7CAFB0146A5FB22
:101A40000120420908466FF01801514300EB810064
:101A500006EBC000A5FB00101301400900F0F801DF
:101A600003EB410100F0070008442168886070BD65
:101A70001F85EB51FEE702E008C8121F08C1002ACB
:101A8000FAD170477047002001E001C1121F002AFF
:101A9000FBD1704786B0FFF74BF8FFF7BFFE00247D
:101AA000564800940194029403940494016841F010
:101AB00004010160016801F004010591016841F031
:101AC00080010160016801F080010591016841F029
:101AD00001010160016801F001010591016841F017
:101AE000020101600068464D00F0020005900022EE
:101AF00020212846FFF708F84FF400500090414895
:101B0000CDE9010469464048FEF710FF202000900F
:101B10000126CDE90164694628460394FEF706FFD5
:101B20003B4900940194029438480394C1E90004AD
:101B30008C600C610C7681F820403648C1E90A04BB
:101B4000CE61CC6081F8304008464E61FEF766FDFC
:101B500008B172B6FEE7CDE9004669462C4802940A
:101B6000FEF7D4FB08B172B6FEE72C492A4808609C
:101B70004FF4E130C1E901040C20CC60C1E904401C
:101B80008C610846CC61FFF7DCFD08B172B6FEE758
:101B90002349009401940294039404944FF08040EC
:101BA0000594C1E900042320C1E902400C61084604
:101BB0008C61FFF7CAFB08B172B6FEE74FF48050A4
:101BC000009069461648FFF73FFC08B172B6FEE781
:101BD000049404A912480594FFF776FB08B172B685
:101BE000FEE7012220212846FEF78EFF0C48FFF772
:101BF000F5FB0748FEF708FEFEE70000303802401C
:101C000000000240000021100008024000200140B6
:101C10001C0000200100000F00440040AC00002028
:101C20006400002014000000D00700000000000045
:101C3000000000000102030406070809000000007C
:101C400001020304641C0008000000201C000000C6
:101C5000761A0008801C00081C00002014240000D4
:101C6000861A0008000000000000000000000000CC
:101C70000100000010000000000000000024F4003B
:040000050800019559
:00000001FF
